:020000040000FA
:0400000052EF0AF0C1
:10080000004275746F6E6120426173696E697A216E
:1008100021004275746F6E6120426173696C646976
:100820002031004275746F6E6120426173696C649F
:100830006920320053656C63756B20436F6D6C6586
:100840006B63690053697374656D204261736C69F1
:10085000796F7200436968617A204261676C616EEA
:10086000646900476F6E636120536168696E004C74
:1008700045445F31204F4646004C45445F32204F8F
:100880004646005344552050726F6A65004C4544FB
:100890005F31204F4E004C45445F32204F4E005098
:1008A000726F662E447200002B50800B346E2B50FA
:1008B0002B24366E2ABE36803650D8B40DD036285A
:1008C000D8A408D0000E286E000E296E000E2A6EE5
:1008D000000E2B6E2A8E06D0000E286E000E296E9A
:1008E000000E2A6E000E2B6E2F50800B356E34508A
:1008F0003518D8A4348C2F502F24356E2EBE358059
:100900003550D8B40DD03528D8A408D0000E2C6EA0
:10091000000E2D6E000E2E6E000E2F6E2E8E06D047
:10092000000E2C6E000E2D6E000E2E6E000E2F6E21
:100930003650355CD8B022D034AC02D0800E341A98
:1009400036C037F035C036F037C035F028C037F044
:100950002CC028F037C02CF029C037F02DC029F06A
:1009600037C02DF02AC037F02EC02AF037C02EF045
:100970002BC037F02FC02BF037C02FF0000E376E92
:10098000365035C030F0316A305E000E315A31BE1B
:100990002CD0315004E11A0E305CD8A026D028505B
:1009A00029102A102B10D8B402D0010E01D0000E4D
:1009B000376E000E286E000E296E000E2A6E000E95
:1009C0002B6E35C036F015D037A005D0D890373013
:1009D0000109376E02D0D890373228B0378E2B34C9
:1009E0002B322A3229322832362A3550365CD8A0AA
:1009F000EBD734BC28D03650D8A409D0000E286ECE
:100A0000000E296E000E2A6E000E2B6E12002C5066
:100A100028262D5029222E502A222F502B222BA05F
:100A200071D037A005D0D89037300109376E02D089
:100A3000D890373228B0378E2B342B322A322932D5
:100A40002832362A5FD02C50285C2D5029582E5041
:100A50002A582B50800A306E2F50800A3058D8B058
:100A600025D028502C5C306E29502D58316E2A50DC
:100A70002E58326E2B502F58336EFF0E3024286EB6
:100A8000FF0E3120296EFF0E32202A6EFF0E33201A
:100A90002B6E800E341A376C3750D8A40FD0010E4D
:100AA0002826000E29222A222B2208D02C50285E2C
:100AB0002D50295A2E502A5A2F502B5A285029107F
:100AC0002A102B10D8A41CD03750D8A419D0000E4F
:100AD000286E000E296E000E2A6E000E2B6E12007C
:100AE000D890283629362A362B3637BE288037A0AC
:100AF00002D0D88001D0D89037363650D8A43606E8
:100B00002AAEEED7000E356E37AE0BD037C030F0C0
:100B10007F0E3016D8B403D0010E356E02D028B047
:100B2000FBD73550D8B420D0010E2826000E29223C
:100B30002A222B222BA018D028C030F029C031F057
:100B40002AC032F02BC033F03334333232323132F8
:100B5000303230C028F031C029F032C02AF033C022
:100B60002BF03628D8A4362A3628D8B403D03650ED
:100B7000D8A40DD0000E286E000E296E000E2A6E2D
:100B8000000E2B6E3650D8A402D0000E346E36A064
:100B900002D02A8E01D02A9ED89036302B6E34BED9
:100BA0002B8E28C028F029C029F02AC02AF02BC09B
:100BB0002BF012001250800B1F6E12501224266E62
:100BC00011BE26802650D8B40DD02628D8A408D02F
:100BD000000E0F6E000E106E000E116E000E126EE3
:100BE000118E06D0000E0F6E000E106E000E116EEC
:100BF000000E126E1650800B1F1A16501624276E08
:100C000015BE27802750D8B40DD02728D8A408D0E7
:100C1000000E136E000E146E000E156E000E166E92
:100C2000158E06D0000E136E000E146E000E156E9B
:100C3000000E166E1350141015101610D8A417D0ED
:100C4000000E0F6E000E106E000E116E000E126E72
:100C5000800E11127F0E12121F5012120FC00FF0D1
:100C600010C010F011C011F012C012F01200265086
:100C7000D8A409D0000E0F6E000E106E000E116E7B
:100C8000000E126E1200275026C017F0186A175E69
:100C9000000E185A7F0E1724206E000E1820216EA9
:100CA0000FC01BF010C01CF011C01DF012C01EF0D0
:100CB000000E0F6E000E106E000E116E000E126E02
:100CC000000E226E000E236E000E246E000E256EA6
:100CD000000E276E28D02750D8B411D0D8901B36DC
:100CE0001C361D361E36D8900F3610361136123689
:100CF00025BE0F80D8902236233624362536135051
:100D00001B5C14501C5815501D5816501E58D8A066
:100D100009D0258C13501B5E14501C5A15501D5AB7
:100D200016501E5A272A190E2764D5D71B501C109F
:100D30001D101E10D8B411D022800FD0D8900F36BD
:100D400010361136123625BE0F80D8902236233643
:100D5000243625362006D8A0210611AEEFD7000E86
:100D6000276E25AE17D0FF0E2214176EFF0E231428
:100D7000186EFF0E2414196E7F0E25141A6E17506C
:100D8000181019101A10D8B403D0010E276E02D013
:100D90000FB0FBD72750D8B41FD0010E0F26000E7E
:100DA00010221122122212A017D00FC017F010C06B
:100DB00018F011C019F012C01AF01A341A32193290
:100DC0001832173217C00FF018C010F019C011F008
:100DD0001AC012F0204A212A21BE10D0215003E16E
:100DE0002028D8A00BD0000E216E2068000E0F6EB8
:100DF000000E106E000E116E000E126E21BE05D098
:100E0000215011E12004D8B00ED0000E216E000E4A
:100E1000206E000E0F6E000E106E000E116E000E92
:100E2000126E000E1F6E20C026F026A002D0118E7A
:100E300001D0119ED8902630126E0ED70F0EC16EC3
:100E4000720ED36E92949296948082908094809643
:100E5000800E386E250E396E000E3A6E000E3B6E17
:100E6000A2EC09F006EC0AF06CEC0AF0020E416EFE
:100E7000040E406EBA0EE82EFED7402EFCD7412E4F
:100E8000FAD700D0F4EC07F05DEC0AF0456E820E64
:100E9000406EDE0EE82EFED7402EFCD7455066ECA5
:100EA0000AF06CEC0AF082A022D0422A4204D8A4B4
:100EB0000CD06CEC0AF0120E036E080E046E1FECE0
:100EC0000AF0310E66EC0AF08084020E4218D8A4B3
:100ED0000ED06CEC0AF0230E036E080E046E1FECAD
:100EE0000AF0310E66EC0AF08094000E426E310E6C
:100EF0004518D8A43AD0442A4404D8A418D06CEC9D
:100F00000AF0020E416E040E406EBA0EE82EFED7B5
:100F1000402EFCD7412EFAD700D0040E056E8D0E60
:100F2000066E080E076E010EECEC09F08084020ECE
:100F30004418D8A41AD06CEC0AF0020E416E040ECC
:100F4000406EBA0EE82EFED7402EFCD7412EFAD7BF
:100F500000D0030E056E6F0E066E080E076E010EB2
:100F6000ECEC09F0000E446E8094320E4518D8A4C3
:100F70008BD7432A4304D8A418D06CEC0AF0020E95
:100F8000416E040E406EBA0EE82EFED7402EFCD7FE
:100F9000412EFAD700D0040E056E960E066E080E8E
:100FA000076E010EECEC09F08086020E4318D8A4FF
:100FB0006BD76CEC0AF0020E416E040E406EBA0E56
:100FC000E82EFED7402EFCD7412EFAD700D0030ED4
:100FD000056E790E066E080E076E010EECEC09F038
:100FE000000E436E809650D7000E056E440E066EBE
:100FF000080E076E010EECEC09F0150E0B6E4B0E91
:101000000A6EBE0EE82EFED70A2EFCD70B2EFAD79C
:1010100000D06CEC0AF0020E0B6E040E0A6EBA0ED3
:10102000E82EFED70A2EFCD70B2EFAD700D0020EE0
:10103000056E630E066E080E076E010EECEC09F0ED
:10104000020E0B6E040E0A6EBA0EE82EFED70A2EA2
:10105000FCD70B2EFAD700D0030E056E830E066E5A
:10106000080E076E020EECEC09F0150E0B6E4B0E1F
:101070000A6EBE0EE82EFED70A2EFCD70B2EFAD72C
:1010800000D06CEC0AF0020E0B6E040E0A6EBA0E63
:10109000E82EFED70A2EFCD70B2EFAD700D0040E6E
:1010A000056E9F0E066E080E076E010EECEC09F041
:1010B000020E0B6E040E0A6EBA0EE82EFED70A2E32
:1010C000FCD70B2EFAD700D0010E056E340E066E3B
:1010D000080E076E020EECEC09F0150E0B6E4B0EAF
:1010E0000A6EBE0EE82EFED70A2EFCD70B2EFAD7BC
:1010F00000D06CEC0AF0020E0B6E040E0A6EBA0EF3
:10110000E82EFED70A2EFCD70B2EFAD700D0010E00
:10111000056E540E066E080E076E010EECEC09F01B
:10112000000E056E010E066E080E076E020EECEC48
:1011300009F00B0E0B6E260E0A6E5E0EE82EFED721
:101140000A2EFCD70B2EFAD71200096E0950D8A42C
:1011500004AE1AD001C005F002C006F003C007F0CB
:1011600004C008F0051E061E071E081E052A000EF4
:1011700006220722082205C00BF006C00CF007C0AB
:101180000DF008C00EF008D001C00BF002C00CF04A
:1011900003C00DF004C00EF0015002100310041043
:1011A000D8A409D0000E016E000E026E000E036E70
:1011B000000E046E1200960E0A6E06D00A2AD8900F
:1011C0000E320D320C320B32000E0B14056E000E77
:1011D0000C14066E000E0D14076EFE0E0E14086E33
:1011E0000550061007100810D8B40DD0E7D70A2A0A
:1011F000010E0B26000E0C220D220E22D8900E326C
:101200000D320C320B32000E0B14056E000E0C1456
:10121000066E000E0D14076EFF0E0E14086E0550BC
:10122000061007100810D8B407D0E1D70A06D890E6
:101230000B360C360D360E360DBE03D0020E0A608C
:10124000F5D70AA00D9ED8900A320AC005F0066AAA
:10125000076A086A05C008F0076A066A056A055049
:101260000B1206500C1207500D1208500E120950A6
:10127000D8A404AE01D00E8E0BC001F00CC002F059
:101280000DC003F00EC004F01200033404340A6EE3
:101290000A50D8A409D0000E016E000E026E000E96
:1012A000036E000E046E120001C005F002C006F0CD
:1012B00003C007F004C008F0200E05D0D890083213
:1012C000073206320532E82EF9D70550096E038E33
:1012D000FF0E0116FF0E0216FF0E0316000E041677
:1012E000960E0A5E0AAE0DD00A50800A970FD8A05B
:1012F000D2D7D89004320332023201320A3EF9D7F3
:101300000DD01F0E0A6407D0C6D7D890013602361A
:10131000033604360A060A50D8A4F7D70950D8B4C1
:1013200008D0041E031E021E016C000E02220322BE
:10133000042201C001F002C002F003C003F004C0A7
:1013400004F01200949C948E38C001F039C002F071
:101350003AC003F03BC004F0010EA5EC08F001C058
:1013600013F002C014F003C015F004C016F0000E14
:101370000F6E240E106EF40E116E470E126EDAEC24
:1013800005F00FC028F010C029F011C02AF012C0DB
:101390002BF0000E2C6E000E2D6E800E2E6EBF0EEA
:1013A0002F6E54EC04F028C03CF029C03DF02AC058
:1013B0003EF02BC03FF03CC001F03DC002F03EC00B
:1013C00003F03FC004F045EC09F00150AF6E200E71
:1013D000AC6E900EAB6E1200086E020E086008D064
:1013E00005500F0B8009096E095043EC0AF007D035
:1013F00005500F0BC009096E095043EC0AF006C0F6
:1014000003F007C004F01FEC0AF01200270E036E71
:10141000F50EE82EFED7032EFCD700F0000E956ED9
:10142000000E946E380E43EC0AF0010E43EC0AF005
:101430000C0E43EC0AF0060E43EC0AF012000AD040
:1014400003C0F6FF04C0F7FF0800F55034EC0AF0C3
:10145000034A042A03C0F6FF04C0F7FF0800F55052
:101460000009D8B41200ECD7026E02C08CFF8B8248
:101470008B8400F08B94030E016E980EE82EFED73D
:10148000012EFCD71200026E02C08CFF8B928B845F
:1014900000F08B94080E016ECA0EE82EFED7012EC6
:1014A000FCD71200456A446A436A426A000EF86E2D
:1014B000080EF76E00011EEF07F09EAAFED7ABA242
:1014C00003D0AB9800F0AB88AE501200016E9EA81E
:1014D000FED701C0ADFF1200010E43EC0AF012006E
:020000040020DA
:08000000FFFFFFFFFFFFFFFF00
:020000040030CA
:0E000000000B191FFF8385FF0FC00FE00F409C
:00000001FF
